{
  "_format": "hh-sol-artifact-1",
  "contractName": "dPairReview",
  "sourceName": "contracts/dPairReview.sol",
  "abi": [
    {
      "anonymous": false,
      "inputs": [
        {
          "indexed": true,
          "internalType": "uint256",
          "name": "paperId",
          "type": "uint256"
        },
        {
          "indexed": true,
          "internalType": "address",
          "name": "author",
          "type": "address"
        },
        {
          "indexed": false,
          "internalType": "string",
          "name": "title",
          "type": "string"
        },
        {
          "indexed": false,
          "internalType": "string",
          "name": "abs",
          "type": "string"
        },
        {
          "indexed": false,
          "internalType": "string",
          "name": "tags",
          "type": "string"
        },
        {
          "indexed": false,
          "internalType": "string",
          "name": "url",
          "type": "string"
        }
      ],
      "name": "PaperSubmitted",
      "type": "event"
    },
    {
      "anonymous": false,
      "inputs": [
        {
          "indexed": true,
          "internalType": "uint256",
          "name": "paperId",
          "type": "uint256"
        },
        {
          "indexed": true,
          "internalType": "address",
          "name": "reviewer",
          "type": "address"
        },
        {
          "indexed": false,
          "internalType": "string",
          "name": "url",
          "type": "string"
        }
      ],
      "name": "ReviewSubmitted",
      "type": "event"
    },
    {
      "inputs": [
        {
          "internalType": "uint256",
          "name": "paperId",
          "type": "uint256"
        }
      ],
      "name": "getPaper",
      "outputs": [
        {
          "internalType": "address",
          "name": "author",
          "type": "address"
        },
        {
          "internalType": "string",
          "name": "title",
          "type": "string"
        },
        {
          "internalType": "string",
          "name": "abs",
          "type": "string"
        },
        {
          "internalType": "string",
          "name": "tags",
          "type": "string"
        },
        {
          "internalType": "string",
          "name": "url",
          "type": "string"
        }
      ],
      "stateMutability": "view",
      "type": "function"
    },
    {
      "inputs": [],
      "name": "paperCount",
      "outputs": [
        {
          "internalType": "uint256",
          "name": "",
          "type": "uint256"
        }
      ],
      "stateMutability": "view",
      "type": "function"
    },
    {
      "inputs": [
        {
          "internalType": "uint256",
          "name": "",
          "type": "uint256"
        }
      ],
      "name": "papers",
      "outputs": [
        {
          "internalType": "address",
          "name": "author",
          "type": "address"
        },
        {
          "internalType": "string",
          "name": "title",
          "type": "string"
        },
        {
          "internalType": "string",
          "name": "abs",
          "type": "string"
        },
        {
          "internalType": "string",
          "name": "tags",
          "type": "string"
        },
        {
          "internalType": "string",
          "name": "url",
          "type": "string"
        }
      ],
      "stateMutability": "view",
      "type": "function"
    },
    {
      "inputs": [
        {
          "internalType": "uint256",
          "name": "paperId",
          "type": "uint256"
        },
        {
          "internalType": "string",
          "name": "url",
          "type": "string"
        }
      ],
      "name": "reviewPaper",
      "outputs": [],
      "stateMutability": "nonpayable",
      "type": "function"
    },
    {
      "inputs": [
        {
          "internalType": "string",
          "name": "title",
          "type": "string"
        },
        {
          "internalType": "string",
          "name": "abs",
          "type": "string"
        },
        {
          "internalType": "string",
          "name": "tags",
          "type": "string"
        },
        {
          "internalType": "string",
          "name": "url",
          "type": "string"
        }
      ],
      "name": "submitPaper",
      "outputs": [
        {
          "internalType": "uint256",
          "name": "",
          "type": "uint256"
        }
      ],
      "stateMutability": "nonpayable",
      "type": "function"
    }
  ],
  "bytecode": "0x6080604052348015600f57600080fd5b506111768061001f6000396000f3fe608060405234801561001057600080fd5b50600436106100575760003560e01c806307993f041461005c5780635e775a2714610090578063a56c2cb9146100c4578063c15410e0146100e2578063ecc9ecd814610112575b600080fd5b610076600480360381019061007191906108fd565b61012e565b6040516100879594939291906109fb565b60405180910390f35b6100aa60048036038101906100a591906108fd565b610422565b6040516100bb9594939291906109fb565b60405180910390f35b6100cc610698565b6040516100d99190610a79565b60405180910390f35b6100fc60048036038101906100f79190610bc9565b61069e565b6040516101099190610a79565b60405180910390f35b61012c60048036038101906101279190610ca0565b61080f565b005b600060608060608060008060008881526020019081526020016000206040518060a00160405290816000820160009054906101000a900473ffffffffffffffffffffffffffffffffffffffff1673ffffffffffffffffffffffffffffffffffffffff1673ffffffffffffffffffffffffffffffffffffffff1681526020016001820180546101bb90610d2b565b80601f01602080910402602001604051908101604052809291908181526020018280546101e790610d2b565b80156102345780601f1061020957610100808354040283529160200191610234565b820191906000526020600020905b81548152906001019060200180831161021757829003601f168201915b5050505050815260200160028201805461024d90610d2b565b80601f016020809104026020016040519081016040528092919081815260200182805461027990610d2b565b80156102c65780601f1061029b576101008083540402835291602001916102c6565b820191906000526020600020905b8154815290600101906020018083116102a957829003601f168201915b505050505081526020016003820180546102df90610d2b565b80601f016020809104026020016040519081016040528092919081815260200182805461030b90610d2b565b80156103585780601f1061032d57610100808354040283529160200191610358565b820191906000526020600020905b81548152906001019060200180831161033b57829003601f168201915b5050505050815260200160048201805461037190610d2b565b80601f016020809104026020016040519081016040528092919081815260200182805461039d90610d2b565b80156103ea5780601f106103bf576101008083540402835291602001916103ea565b820191906000526020600020905b8154815290600101906020018083116103cd57829003601f168201915b505050505081525050905080600001518160200151826040015183606001518460800151955095509550955095505091939590929450565b60006020528060005260406000206000915090508060000160009054906101000a900473ffffffffffffffffffffffffffffffffffffffff169080600101805461046b90610d2b565b80601f016020809104026020016040519081016040528092919081815260200182805461049790610d2b565b80156104e45780601f106104b9576101008083540402835291602001916104e4565b820191906000526020600020905b8154815290600101906020018083116104c757829003601f168201915b5050505050908060020180546104f990610d2b565b80601f016020809104026020016040519081016040528092919081815260200182805461052590610d2b565b80156105725780601f1061054757610100808354040283529160200191610572565b820191906000526020600020905b81548152906001019060200180831161055557829003601f168201915b50505050509080600301805461058790610d2b565b80601f01602080910402602001604051908101604052809291908181526020018280546105b390610d2b565b80156106005780601f106105d557610100808354040283529160200191610600565b820191906000526020600020905b8154815290600101906020018083116105e357829003601f168201915b50505050509080600401805461061590610d2b565b80601f016020809104026020016040519081016040528092919081815260200182805461064190610d2b565b801561068e5780601f106106635761010080835404028352916020019161068e565b820191906000526020600020905b81548152906001019060200180831161067157829003601f168201915b5050505050905085565b60015481565b6000600160008154809291906106b390610d8b565b91905055506040518060a001604052803373ffffffffffffffffffffffffffffffffffffffff16815260200186815260200185815260200184815260200183815250600080600154815260200190815260200160002060008201518160000160006101000a81548173ffffffffffffffffffffffffffffffffffffffff021916908373ffffffffffffffffffffffffffffffffffffffff16021790555060208201518160010190816107659190610f7f565b50604082015181600201908161077b9190610f7f565b5060608201518160030190816107919190610f7f565b5060808201518160040190816107a79190610f7f565b509050503373ffffffffffffffffffffffffffffffffffffffff166001547f411f22f9a07f04ba2acbc25466438d3a74732579ccaa463ffabc729d06844834878787876040516107fa9493929190611051565b60405180910390a36001549050949350505050565b60008211801561082157506001548211155b610860576040517f08c379a0000000000000000000000000000000000000000000000000000000008152600401610857906110fe565b60405180910390fd5b3373ffffffffffffffffffffffffffffffffffffffff16827ff0906d4d262a532d67cb5e02d3670754cf0804da22ebe7eae7b42feafebee15b836040516108a7919061111e565b60405180910390a35050565b6000604051905090565b600080fd5b600080fd5b6000819050919050565b6108da816108c7565b81146108e557600080fd5b50565b6000813590506108f7816108d1565b92915050565b600060208284031215610913576109126108bd565b5b6000610921848285016108e8565b91505092915050565b600073ffffffffffffffffffffffffffffffffffffffff82169050919050565b60006109558261092a565b9050919050565b6109658161094a565b82525050565b600081519050919050565b600082825260208201905092915050565b60005b838110156109a557808201518184015260208101905061098a565b60008484015250505050565b6000601f19601f8301169050919050565b60006109cd8261096b565b6109d78185610976565b93506109e7818560208601610987565b6109f0816109b1565b840191505092915050565b600060a082019050610a10600083018861095c565b8181036020830152610a2281876109c2565b90508181036040830152610a3681866109c2565b90508181036060830152610a4a81856109c2565b90508181036080830152610a5e81846109c2565b90509695505050505050565b610a73816108c7565b82525050565b6000602082019050610a8e6000830184610a6a565b92915050565b600080fd5b600080fd5b7f4e487b7100000000000000000000000000000000000000000000000000000000600052604160045260246000fd5b610ad6826109b1565b810181811067ffffffffffffffff82111715610af557610af4610a9e565b5b80604052505050565b6000610b086108b3565b9050610b148282610acd565b919050565b600067ffffffffffffffff821115610b3457610b33610a9e565b5b610b3d826109b1565b9050602081019050919050565b82818337600083830152505050565b6000610b6c610b6784610b19565b610afe565b905082815260208101848484011115610b8857610b87610a99565b5b610b93848285610b4a565b509392505050565b600082601f830112610bb057610baf610a94565b5b8135610bc0848260208601610b59565b91505092915050565b60008060008060808587031215610be357610be26108bd565b5b600085013567ffffffffffffffff811115610c0157610c006108c2565b5b610c0d87828801610b9b565b945050602085013567ffffffffffffffff811115610c2e57610c2d6108c2565b5b610c3a87828801610b9b565b935050604085013567ffffffffffffffff811115610c5b57610c5a6108c2565b5b610c6787828801610b9b565b925050606085013567ffffffffffffffff811115610c8857610c876108c2565b5b610c9487828801610b9b565b91505092959194509250565b60008060408385031215610cb757610cb66108bd565b5b6000610cc5858286016108e8565b925050602083013567ffffffffffffffff811115610ce657610ce56108c2565b5b610cf285828601610b9b565b9150509250929050565b7f4e487b7100000000000000000000000000000000000000000000000000000000600052602260045260246000fd5b60006002820490506001821680610d4357607f821691505b602082108103610d5657610d55610cfc565b5b50919050565b7f4e487b7100000000000000000000000000000000000000000000000000000000600052601160045260246000fd5b6000610d96826108c7565b91507fffffffffffffffffffffffffffffffffffffffffffffffffffffffffffffffff8203610dc857610dc7610d5c565b5b600182019050919050565b60008190508160005260206000209050919050565b60006020601f8301049050919050565b600082821b905092915050565b600060088302610e357fffffffffffffffffffffffffffffffffffffffffffffffffffffffffffffffff82610df8565b610e3f8683610df8565b95508019841693508086168417925050509392505050565b6000819050919050565b6000610e7c610e77610e72846108c7565b610e57565b6108c7565b9050919050565b6000819050919050565b610e9683610e61565b610eaa610ea282610e83565b848454610e05565b825550505050565b600090565b610ebf610eb2565b610eca818484610e8d565b505050565b5b81811015610eee57610ee3600082610eb7565b600181019050610ed0565b5050565b601f821115610f3357610f0481610dd3565b610f0d84610de8565b81016020851015610f1c578190505b610f30610f2885610de8565b830182610ecf565b50505b505050565b600082821c905092915050565b6000610f5660001984600802610f38565b1980831691505092915050565b6000610f6f8383610f45565b9150826002028217905092915050565b610f888261096b565b67ffffffffffffffff811115610fa157610fa0610a9e565b5b610fab8254610d2b565b610fb6828285610ef2565b600060209050601f831160018114610fe95760008415610fd7578287015190505b610fe18582610f63565b865550611049565b601f198416610ff786610dd3565b60005b8281101561101f57848901518255600182019150602085019450602081019050610ffa565b8683101561103c5784890151611038601f891682610f45565b8355505b6001600288020188555050505b505050505050565b6000608082019050818103600083015261106b81876109c2565b9050818103602083015261107f81866109c2565b9050818103604083015261109381856109c2565b905081810360608301526110a781846109c2565b905095945050505050565b7f506170657220696e646578206572726f72000000000000000000000000000000600082015250565b60006110e8601183610976565b91506110f3826110b2565b602082019050919050565b60006020820190508181036000830152611117816110db565b9050919050565b6000602082019050818103600083015261113881846109c2565b90509291505056fea2646970667358221220e3f8e7d618efb25e0804676716bdb954db85519115a65117b0cb1410dd338e8d64736f6c634300081c0033",
  "linkReferences": {},
  "deployedLinkReferences": {}
}