{
  "_format": "hh-sol-artifact-1",
  "contractName": "dPairReview",
  "sourceName": "contracts/dPairReview.sol",
  "abi": [
    {
      "anonymous": false,
      "inputs": [
        {
          "indexed": true,
          "internalType": "uint256",
          "name": "paperId",
          "type": "uint256"
        },
        {
          "indexed": true,
          "internalType": "address",
          "name": "author",
          "type": "address"
        },
        {
          "indexed": false,
          "internalType": "string",
          "name": "title",
          "type": "string"
        },
        {
          "indexed": false,
          "internalType": "string",
          "name": "uri",
          "type": "string"
        }
      ],
      "name": "PaperSubmitted",
      "type": "event"
    },
    {
      "anonymous": false,
      "inputs": [
        {
          "indexed": true,
          "internalType": "uint256",
          "name": "paperId",
          "type": "uint256"
        },
        {
          "indexed": true,
          "internalType": "address",
          "name": "reviewer",
          "type": "address"
        },
        {
          "indexed": false,
          "internalType": "string",
          "name": "url",
          "type": "string"
        }
      ],
      "name": "ReviewSubmitted",
      "type": "event"
    },
    {
      "inputs": [],
      "name": "paperCount",
      "outputs": [
        {
          "internalType": "uint256",
          "name": "",
          "type": "uint256"
        }
      ],
      "stateMutability": "view",
      "type": "function"
    },
    {
      "inputs": [
        {
          "internalType": "uint256",
          "name": "",
          "type": "uint256"
        }
      ],
      "name": "papers",
      "outputs": [
        {
          "internalType": "address",
          "name": "author",
          "type": "address"
        },
        {
          "internalType": "string",
          "name": "title",
          "type": "string"
        },
        {
          "internalType": "string",
          "name": "uri",
          "type": "string"
        }
      ],
      "stateMutability": "view",
      "type": "function"
    },
    {
      "inputs": [
        {
          "internalType": "uint256",
          "name": "paperId",
          "type": "uint256"
        },
        {
          "internalType": "string",
          "name": "url",
          "type": "string"
        }
      ],
      "name": "reviewPaper",
      "outputs": [],
      "stateMutability": "nonpayable",
      "type": "function"
    },
    {
      "inputs": [
        {
          "internalType": "string",
          "name": "title",
          "type": "string"
        },
        {
          "internalType": "string",
          "name": "url",
          "type": "string"
        }
      ],
      "name": "submitPaper",
      "outputs": [
        {
          "internalType": "uint256",
          "name": "",
          "type": "uint256"
        }
      ],
      "stateMutability": "nonpayable",
      "type": "function"
    }
  ],
  "bytecode": "0x6080604052348015600f57600080fd5b50610c348061001f6000396000f3fe608060405234801561001057600080fd5b506004361061004c5760003560e01c80635e775a2714610051578063a1d62b1b14610083578063a56c2cb9146100b3578063ecc9ecd8146100d1575b600080fd5b61006b6004803603810190610066919061046e565b6100ed565b60405161007a9392919061056c565b60405180910390f35b61009d600480360381019061009891906106e6565b610247565b6040516100aa919061076d565b60405180910390f35b6100bb61037a565b6040516100c8919061076d565b60405180910390f35b6100eb60048036038101906100e69190610788565b610380565b005b60006020528060005260406000206000915090508060000160009054906101000a900473ffffffffffffffffffffffffffffffffffffffff169080600101805461013690610813565b80601f016020809104026020016040519081016040528092919081815260200182805461016290610813565b80156101af5780601f10610184576101008083540402835291602001916101af565b820191906000526020600020905b81548152906001019060200180831161019257829003601f168201915b5050505050908060020180546101c490610813565b80601f01602080910402602001604051908101604052809291908181526020018280546101f090610813565b801561023d5780601f106102125761010080835404028352916020019161023d565b820191906000526020600020905b81548152906001019060200180831161022057829003601f168201915b5050505050905083565b60006001600081548092919061025c90610873565b919050555060405180606001604052803373ffffffffffffffffffffffffffffffffffffffff16815260200184815260200183815250600080600154815260200190815260200160002060008201518160000160006101000a81548173ffffffffffffffffffffffffffffffffffffffff021916908373ffffffffffffffffffffffffffffffffffffffff16021790555060208201518160010190816103029190610a67565b5060408201518160020190816103189190610a67565b509050503373ffffffffffffffffffffffffffffffffffffffff166001547ff3cfeab64dd4672f076e168dc99e5339937587a541ec8c7bbead85e4820c0ac18585604051610367929190610b39565b60405180910390a3600154905092915050565b60015481565b60008211801561039257506001548211155b6103d1576040517f08c379a00000000000000000000000000000000000000000000000000000000081526004016103c890610bbc565b60405180910390fd5b3373ffffffffffffffffffffffffffffffffffffffff16827ff0906d4d262a532d67cb5e02d3670754cf0804da22ebe7eae7b42feafebee15b836040516104189190610bdc565b60405180910390a35050565b6000604051905090565b600080fd5b600080fd5b6000819050919050565b61044b81610438565b811461045657600080fd5b50565b60008135905061046881610442565b92915050565b6000602082840312156104845761048361042e565b5b600061049284828501610459565b91505092915050565b600073ffffffffffffffffffffffffffffffffffffffff82169050919050565b60006104c68261049b565b9050919050565b6104d6816104bb565b82525050565b600081519050919050565b600082825260208201905092915050565b60005b838110156105165780820151818401526020810190506104fb565b60008484015250505050565b6000601f19601f8301169050919050565b600061053e826104dc565b61054881856104e7565b93506105588185602086016104f8565b61056181610522565b840191505092915050565b600060608201905061058160008301866104cd565b81810360208301526105938185610533565b905081810360408301526105a78184610533565b9050949350505050565b600080fd5b600080fd5b7f4e487b7100000000000000000000000000000000000000000000000000000000600052604160045260246000fd5b6105f382610522565b810181811067ffffffffffffffff82111715610612576106116105bb565b5b80604052505050565b6000610625610424565b905061063182826105ea565b919050565b600067ffffffffffffffff821115610651576106506105bb565b5b61065a82610522565b9050602081019050919050565b82818337600083830152505050565b600061068961068484610636565b61061b565b9050828152602081018484840111156106a5576106a46105b6565b5b6106b0848285610667565b509392505050565b600082601f8301126106cd576106cc6105b1565b5b81356106dd848260208601610676565b91505092915050565b600080604083850312156106fd576106fc61042e565b5b600083013567ffffffffffffffff81111561071b5761071a610433565b5b610727858286016106b8565b925050602083013567ffffffffffffffff81111561074857610747610433565b5b610754858286016106b8565b9150509250929050565b61076781610438565b82525050565b6000602082019050610782600083018461075e565b92915050565b6000806040838503121561079f5761079e61042e565b5b60006107ad85828601610459565b925050602083013567ffffffffffffffff8111156107ce576107cd610433565b5b6107da858286016106b8565b9150509250929050565b7f4e487b7100000000000000000000000000000000000000000000000000000000600052602260045260246000fd5b6000600282049050600182168061082b57607f821691505b60208210810361083e5761083d6107e4565b5b50919050565b7f4e487b7100000000000000000000000000000000000000000000000000000000600052601160045260246000fd5b600061087e82610438565b91507fffffffffffffffffffffffffffffffffffffffffffffffffffffffffffffffff82036108b0576108af610844565b5b600182019050919050565b60008190508160005260206000209050919050565b60006020601f8301049050919050565b600082821b905092915050565b60006008830261091d7fffffffffffffffffffffffffffffffffffffffffffffffffffffffffffffffff826108e0565b61092786836108e0565b95508019841693508086168417925050509392505050565b6000819050919050565b600061096461095f61095a84610438565b61093f565b610438565b9050919050565b6000819050919050565b61097e83610949565b61099261098a8261096b565b8484546108ed565b825550505050565b600090565b6109a761099a565b6109b2818484610975565b505050565b5b818110156109d6576109cb60008261099f565b6001810190506109b8565b5050565b601f821115610a1b576109ec816108bb565b6109f5846108d0565b81016020851015610a04578190505b610a18610a10856108d0565b8301826109b7565b50505b505050565b600082821c905092915050565b6000610a3e60001984600802610a20565b1980831691505092915050565b6000610a578383610a2d565b9150826002028217905092915050565b610a70826104dc565b67ffffffffffffffff811115610a8957610a886105bb565b5b610a938254610813565b610a9e8282856109da565b600060209050601f831160018114610ad15760008415610abf578287015190505b610ac98582610a4b565b865550610b31565b601f198416610adf866108bb565b60005b82811015610b0757848901518255600182019150602085019450602081019050610ae2565b86831015610b245784890151610b20601f891682610a2d565b8355505b6001600288020188555050505b505050505050565b60006040820190508181036000830152610b538185610533565b90508181036020830152610b678184610533565b90509392505050565b7f506170657220696e646578206572726f72000000000000000000000000000000600082015250565b6000610ba66011836104e7565b9150610bb182610b70565b602082019050919050565b60006020820190508181036000830152610bd581610b99565b9050919050565b60006020820190508181036000830152610bf68184610533565b90509291505056fea2646970667358221220afb68e4364ea0a938539686ec9ecafda1a77fc83cc87f04b4567095f1478a66c64736f6c634300081c0033",
  "linkReferences": {},
  "deployedLinkReferences": {}
}