{
  "_format": "hh-sol-artifact-1",
  "contractName": "dPairReview",
  "sourceName": "contracts/dPairReview.sol",
  "abi": [
    {
      "anonymous": false,
      "inputs": [
        {
          "indexed": true,
          "internalType": "uint256",
          "name": "paperId",
          "type": "uint256"
        },
        {
          "indexed": true,
          "internalType": "address",
          "name": "author",
          "type": "address"
        },
        {
          "indexed": false,
          "internalType": "string",
          "name": "title",
          "type": "string"
        },
        {
          "indexed": false,
          "internalType": "string",
          "name": "abs",
          "type": "string"
        },
        {
          "indexed": false,
          "internalType": "string",
          "name": "tags",
          "type": "string"
        },
        {
          "indexed": false,
          "internalType": "string",
          "name": "url",
          "type": "string"
        }
      ],
      "name": "PaperSubmitted",
      "type": "event"
    },
    {
      "anonymous": false,
      "inputs": [
        {
          "indexed": true,
          "internalType": "uint256",
          "name": "paperId",
          "type": "uint256"
        },
        {
          "indexed": true,
          "internalType": "address",
          "name": "reviewer",
          "type": "address"
        },
        {
          "indexed": false,
          "internalType": "string",
          "name": "url",
          "type": "string"
        }
      ],
      "name": "ReviewSubmitted",
      "type": "event"
    },
    {
      "inputs": [
        {
          "internalType": "uint256",
          "name": "paperId",
          "type": "uint256"
        }
      ],
      "name": "getPaper",
      "outputs": [
        {
          "internalType": "uint256",
          "name": "id",
          "type": "uint256"
        },
        {
          "internalType": "address",
          "name": "author",
          "type": "address"
        },
        {
          "internalType": "string",
          "name": "title",
          "type": "string"
        },
        {
          "internalType": "string",
          "name": "abs",
          "type": "string"
        },
        {
          "internalType": "string",
          "name": "tags",
          "type": "string"
        },
        {
          "internalType": "string",
          "name": "url",
          "type": "string"
        }
      ],
      "stateMutability": "view",
      "type": "function"
    },
    {
      "inputs": [],
      "name": "paperCount",
      "outputs": [
        {
          "internalType": "uint256",
          "name": "",
          "type": "uint256"
        }
      ],
      "stateMutability": "view",
      "type": "function"
    },
    {
      "inputs": [
        {
          "internalType": "uint256",
          "name": "",
          "type": "uint256"
        }
      ],
      "name": "papers",
      "outputs": [
        {
          "internalType": "address",
          "name": "author",
          "type": "address"
        },
        {
          "internalType": "string",
          "name": "title",
          "type": "string"
        },
        {
          "internalType": "string",
          "name": "abs",
          "type": "string"
        },
        {
          "internalType": "string",
          "name": "tags",
          "type": "string"
        },
        {
          "internalType": "string",
          "name": "url",
          "type": "string"
        }
      ],
      "stateMutability": "view",
      "type": "function"
    },
    {
      "inputs": [
        {
          "internalType": "uint256",
          "name": "paperId",
          "type": "uint256"
        },
        {
          "internalType": "string",
          "name": "url",
          "type": "string"
        }
      ],
      "name": "reviewPaper",
      "outputs": [],
      "stateMutability": "nonpayable",
      "type": "function"
    },
    {
      "inputs": [
        {
          "internalType": "string",
          "name": "title",
          "type": "string"
        },
        {
          "internalType": "string",
          "name": "abs",
          "type": "string"
        },
        {
          "internalType": "string",
          "name": "tags",
          "type": "string"
        },
        {
          "internalType": "string",
          "name": "url",
          "type": "string"
        }
      ],
      "name": "submitPaper",
      "outputs": [
        {
          "internalType": "uint256",
          "name": "",
          "type": "uint256"
        }
      ],
      "stateMutability": "nonpayable",
      "type": "function"
    }
  ],
  "bytecode": "0x6080604052348015600f57600080fd5b506111f88061001f6000396000f3fe608060405234801561001057600080fd5b50600436106100575760003560e01c806307993f041461005c5780635e775a2714610091578063a56c2cb9146100c5578063c15410e0146100e3578063ecc9ecd814610113575b600080fd5b61007660048036038101906100719190610902565b61012f565b60405161008896959493929190610a0f565b60405180910390f35b6100ab60048036038101906100a69190610902565b610427565b6040516100bc959493929190610a8c565b60405180910390f35b6100cd61069d565b6040516100da9190610afb565b60405180910390f35b6100fd60048036038101906100f89190610c4b565b6106a3565b60405161010a9190610afb565b60405180910390f35b61012d60048036038101906101289190610d22565b610814565b005b60008060608060608060008060008981526020019081526020016000206040518060a00160405290816000820160009054906101000a900473ffffffffffffffffffffffffffffffffffffffff1673ffffffffffffffffffffffffffffffffffffffff1673ffffffffffffffffffffffffffffffffffffffff1681526020016001820180546101bd90610dad565b80601f01602080910402602001604051908101604052809291908181526020018280546101e990610dad565b80156102365780601f1061020b57610100808354040283529160200191610236565b820191906000526020600020905b81548152906001019060200180831161021957829003601f168201915b5050505050815260200160028201805461024f90610dad565b80601f016020809104026020016040519081016040528092919081815260200182805461027b90610dad565b80156102c85780601f1061029d576101008083540402835291602001916102c8565b820191906000526020600020905b8154815290600101906020018083116102ab57829003601f168201915b505050505081526020016003820180546102e190610dad565b80601f016020809104026020016040519081016040528092919081815260200182805461030d90610dad565b801561035a5780601f1061032f5761010080835404028352916020019161035a565b820191906000526020600020905b81548152906001019060200180831161033d57829003601f168201915b5050505050815260200160048201805461037390610dad565b80601f016020809104026020016040519081016040528092919081815260200182805461039f90610dad565b80156103ec5780601f106103c1576101008083540402835291602001916103ec565b820191906000526020600020905b8154815290600101906020018083116103cf57829003601f168201915b505050505081525050905087816000015182602001518360400151846060015185608001519650965096509650965096505091939550919395565b60006020528060005260406000206000915090508060000160009054906101000a900473ffffffffffffffffffffffffffffffffffffffff169080600101805461047090610dad565b80601f016020809104026020016040519081016040528092919081815260200182805461049c90610dad565b80156104e95780601f106104be576101008083540402835291602001916104e9565b820191906000526020600020905b8154815290600101906020018083116104cc57829003601f168201915b5050505050908060020180546104fe90610dad565b80601f016020809104026020016040519081016040528092919081815260200182805461052a90610dad565b80156105775780601f1061054c57610100808354040283529160200191610577565b820191906000526020600020905b81548152906001019060200180831161055a57829003601f168201915b50505050509080600301805461058c90610dad565b80601f01602080910402602001604051908101604052809291908181526020018280546105b890610dad565b80156106055780601f106105da57610100808354040283529160200191610605565b820191906000526020600020905b8154815290600101906020018083116105e857829003601f168201915b50505050509080600401805461061a90610dad565b80601f016020809104026020016040519081016040528092919081815260200182805461064690610dad565b80156106935780601f1061066857610100808354040283529160200191610693565b820191906000526020600020905b81548152906001019060200180831161067657829003601f168201915b5050505050905085565b60015481565b6000600160008154809291906106b890610e0d565b91905055506040518060a001604052803373ffffffffffffffffffffffffffffffffffffffff16815260200186815260200185815260200184815260200183815250600080600154815260200190815260200160002060008201518160000160006101000a81548173ffffffffffffffffffffffffffffffffffffffff021916908373ffffffffffffffffffffffffffffffffffffffff160217905550602082015181600101908161076a9190611001565b5060408201518160020190816107809190611001565b5060608201518160030190816107969190611001565b5060808201518160040190816107ac9190611001565b509050503373ffffffffffffffffffffffffffffffffffffffff166001547f411f22f9a07f04ba2acbc25466438d3a74732579ccaa463ffabc729d06844834878787876040516107ff94939291906110d3565b60405180910390a36001549050949350505050565b60008211801561082657506001548211155b610865576040517f08c379a000000000000000000000000000000000000000000000000000000000815260040161085c90611180565b60405180910390fd5b3373ffffffffffffffffffffffffffffffffffffffff16827ff0906d4d262a532d67cb5e02d3670754cf0804da22ebe7eae7b42feafebee15b836040516108ac91906111a0565b60405180910390a35050565b6000604051905090565b600080fd5b600080fd5b6000819050919050565b6108df816108cc565b81146108ea57600080fd5b50565b6000813590506108fc816108d6565b92915050565b600060208284031215610918576109176108c2565b5b6000610926848285016108ed565b91505092915050565b610938816108cc565b82525050565b600073ffffffffffffffffffffffffffffffffffffffff82169050919050565b60006109698261093e565b9050919050565b6109798161095e565b82525050565b600081519050919050565b600082825260208201905092915050565b60005b838110156109b957808201518184015260208101905061099e565b60008484015250505050565b6000601f19601f8301169050919050565b60006109e18261097f565b6109eb818561098a565b93506109fb81856020860161099b565b610a04816109c5565b840191505092915050565b600060c082019050610a24600083018961092f565b610a316020830188610970565b8181036040830152610a4381876109d6565b90508181036060830152610a5781866109d6565b90508181036080830152610a6b81856109d6565b905081810360a0830152610a7f81846109d6565b9050979650505050505050565b600060a082019050610aa16000830188610970565b8181036020830152610ab381876109d6565b90508181036040830152610ac781866109d6565b90508181036060830152610adb81856109d6565b90508181036080830152610aef81846109d6565b90509695505050505050565b6000602082019050610b10600083018461092f565b92915050565b600080fd5b600080fd5b7f4e487b7100000000000000000000000000000000000000000000000000000000600052604160045260246000fd5b610b58826109c5565b810181811067ffffffffffffffff82111715610b7757610b76610b20565b5b80604052505050565b6000610b8a6108b8565b9050610b968282610b4f565b919050565b600067ffffffffffffffff821115610bb657610bb5610b20565b5b610bbf826109c5565b9050602081019050919050565b82818337600083830152505050565b6000610bee610be984610b9b565b610b80565b905082815260208101848484011115610c0a57610c09610b1b565b5b610c15848285610bcc565b509392505050565b600082601f830112610c3257610c31610b16565b5b8135610c42848260208601610bdb565b91505092915050565b60008060008060808587031215610c6557610c646108c2565b5b600085013567ffffffffffffffff811115610c8357610c826108c7565b5b610c8f87828801610c1d565b945050602085013567ffffffffffffffff811115610cb057610caf6108c7565b5b610cbc87828801610c1d565b935050604085013567ffffffffffffffff811115610cdd57610cdc6108c7565b5b610ce987828801610c1d565b925050606085013567ffffffffffffffff811115610d0a57610d096108c7565b5b610d1687828801610c1d565b91505092959194509250565b60008060408385031215610d3957610d386108c2565b5b6000610d47858286016108ed565b925050602083013567ffffffffffffffff811115610d6857610d676108c7565b5b610d7485828601610c1d565b9150509250929050565b7f4e487b7100000000000000000000000000000000000000000000000000000000600052602260045260246000fd5b60006002820490506001821680610dc557607f821691505b602082108103610dd857610dd7610d7e565b5b50919050565b7f4e487b7100000000000000000000000000000000000000000000000000000000600052601160045260246000fd5b6000610e18826108cc565b91507fffffffffffffffffffffffffffffffffffffffffffffffffffffffffffffffff8203610e4a57610e49610dde565b5b600182019050919050565b60008190508160005260206000209050919050565b60006020601f8301049050919050565b600082821b905092915050565b600060088302610eb77fffffffffffffffffffffffffffffffffffffffffffffffffffffffffffffffff82610e7a565b610ec18683610e7a565b95508019841693508086168417925050509392505050565b6000819050919050565b6000610efe610ef9610ef4846108cc565b610ed9565b6108cc565b9050919050565b6000819050919050565b610f1883610ee3565b610f2c610f2482610f05565b848454610e87565b825550505050565b600090565b610f41610f34565b610f4c818484610f0f565b505050565b5b81811015610f7057610f65600082610f39565b600181019050610f52565b5050565b601f821115610fb557610f8681610e55565b610f8f84610e6a565b81016020851015610f9e578190505b610fb2610faa85610e6a565b830182610f51565b50505b505050565b600082821c905092915050565b6000610fd860001984600802610fba565b1980831691505092915050565b6000610ff18383610fc7565b9150826002028217905092915050565b61100a8261097f565b67ffffffffffffffff81111561102357611022610b20565b5b61102d8254610dad565b611038828285610f74565b600060209050601f83116001811461106b5760008415611059578287015190505b6110638582610fe5565b8655506110cb565b601f19841661107986610e55565b60005b828110156110a15784890151825560018201915060208501945060208101905061107c565b868310156110be57848901516110ba601f891682610fc7565b8355505b6001600288020188555050505b505050505050565b600060808201905081810360008301526110ed81876109d6565b9050818103602083015261110181866109d6565b9050818103604083015261111581856109d6565b9050818103606083015261112981846109d6565b905095945050505050565b7f506170657220696e646578206572726f72000000000000000000000000000000600082015250565b600061116a60118361098a565b915061117582611134565b602082019050919050565b600060208201905081810360008301526111998161115d565b9050919050565b600060208201905081810360008301526111ba81846109d6565b90509291505056fea26469706673582212207c29b35b52479d1a73e92e732606abc58acd4207776c8460f808888c65a1e9a664736f6c634300081c0033",
  "linkReferences": {},
  "deployedLinkReferences": {}
}